{
  "_format": "hh-sol-artifact-1",
  "contractName": "BlockRightsNFT",
  "sourceName": "contracts_src/BlockRightsNFT.sol",
  "abi": [
    {
      "inputs": [],
      "stateMutability": "nonpayable",
      "type": "constructor"
    },
    {
      "anonymous": false,
      "inputs": [
        {
          "indexed": true,
          "internalType": "address",
          "name": "owner",
          "type": "address"
        },
        {
          "indexed": true,
          "internalType": "address",
          "name": "approved",
          "type": "address"
        },
        {
          "indexed": true,
          "internalType": "uint256",
          "name": "tokenId",
          "type": "uint256"
        }
      ],
      "name": "Approval",
      "type": "event"
    },
    {
      "anonymous": false,
      "inputs": [
        {
          "indexed": true,
          "internalType": "address",
          "name": "owner",
          "type": "address"
        },
        {
          "indexed": true,
          "internalType": "address",
          "name": "operator",
          "type": "address"
        },
        {
          "indexed": false,
          "internalType": "bool",
          "name": "approved",
          "type": "bool"
        }
      ],
      "name": "ApprovalForAll",
      "type": "event"
    },
    {
      "anonymous": false,
      "inputs": [
        {
          "indexed": true,
          "internalType": "uint256",
          "name": "tokenId",
          "type": "uint256"
        },
        {
          "indexed": true,
          "internalType": "address",
          "name": "creator",
          "type": "address"
        },
        {
          "indexed": false,
          "internalType": "string",
          "name": "title",
          "type": "string"
        },
        {
          "indexed": false,
          "internalType": "string",
          "name": "hash",
          "type": "string"
        }
      ],
      "name": "ArtworkMinted",
      "type": "event"
    },
    {
      "anonymous": false,
      "inputs": [
        {
          "indexed": true,
          "internalType": "uint256",
          "name": "tokenId",
          "type": "uint256"
        },
        {
          "indexed": false,
          "internalType": "bool",
          "name": "verified",
          "type": "bool"
        }
      ],
      "name": "ArtworkVerified",
      "type": "event"
    },
    {
      "anonymous": false,
      "inputs": [
        {
          "indexed": false,
          "internalType": "uint256",
          "name": "_fromTokenId",
          "type": "uint256"
        },
        {
          "indexed": false,
          "internalType": "uint256",
          "name": "_toTokenId",
          "type": "uint256"
        }
      ],
      "name": "BatchMetadataUpdate",
      "type": "event"
    },
    {
      "anonymous": false,
      "inputs": [
        {
          "indexed": false,
          "internalType": "uint256",
          "name": "_tokenId",
          "type": "uint256"
        }
      ],
      "name": "MetadataUpdate",
      "type": "event"
    },
    {
      "anonymous": false,
      "inputs": [
        {
          "indexed": true,
          "internalType": "address",
          "name": "previousOwner",
          "type": "address"
        },
        {
          "indexed": true,
          "internalType": "address",
          "name": "newOwner",
          "type": "address"
        }
      ],
      "name": "OwnershipTransferred",
      "type": "event"
    },
    {
      "anonymous": false,
      "inputs": [
        {
          "indexed": true,
          "internalType": "address",
          "name": "from",
          "type": "address"
        },
        {
          "indexed": true,
          "internalType": "address",
          "name": "to",
          "type": "address"
        },
        {
          "indexed": true,
          "internalType": "uint256",
          "name": "tokenId",
          "type": "uint256"
        }
      ],
      "name": "Transfer",
      "type": "event"
    },
    {
      "inputs": [
        {
          "internalType": "address",
          "name": "to",
          "type": "address"
        },
        {
          "internalType": "uint256",
          "name": "tokenId",
          "type": "uint256"
        }
      ],
      "name": "approve",
      "outputs": [],
      "stateMutability": "nonpayable",
      "type": "function"
    },
    {
      "inputs": [
        {
          "internalType": "uint256",
          "name": "",
          "type": "uint256"
        }
      ],
      "name": "artworks",
      "outputs": [
        {
          "internalType": "address",
          "name": "creator",
          "type": "address"
        },
        {
          "internalType": "string",
          "name": "title",
          "type": "string"
        },
        {
          "internalType": "string",
          "name": "description",
          "type": "string"
        },
        {
          "internalType": "string",
          "name": "category",
          "type": "string"
        },
        {
          "internalType": "uint256",
          "name": "royaltyPercentage",
          "type": "uint256"
        },
        {
          "internalType": "bool",
          "name": "isVerified",
          "type": "bool"
        },
        {
          "internalType": "uint256",
          "name": "createdAt",
          "type": "uint256"
        },
        {
          "internalType": "string",
          "name": "hash",
          "type": "string"
        }
      ],
      "stateMutability": "view",
      "type": "function"
    },
    {
      "inputs": [
        {
          "internalType": "address",
          "name": "owner",
          "type": "address"
        }
      ],
      "name": "balanceOf",
      "outputs": [
        {
          "internalType": "uint256",
          "name": "",
          "type": "uint256"
        }
      ],
      "stateMutability": "view",
      "type": "function"
    },
    {
      "inputs": [
        {
          "internalType": "uint256",
          "name": "tokenId",
          "type": "uint256"
        }
      ],
      "name": "getApproved",
      "outputs": [
        {
          "internalType": "address",
          "name": "",
          "type": "address"
        }
      ],
      "stateMutability": "view",
      "type": "function"
    },
    {
      "inputs": [
        {
          "internalType": "uint256",
          "name": "tokenId",
          "type": "uint256"
        }
      ],
      "name": "getArtworkInfo",
      "outputs": [
        {
          "components": [
            {
              "internalType": "address",
              "name": "creator",
              "type": "address"
            },
            {
              "internalType": "string",
              "name": "title",
              "type": "string"
            },
            {
              "internalType": "string",
              "name": "description",
              "type": "string"
            },
            {
              "internalType": "string",
              "name": "category",
              "type": "string"
            },
            {
              "internalType": "uint256",
              "name": "royaltyPercentage",
              "type": "uint256"
            },
            {
              "internalType": "bool",
              "name": "isVerified",
              "type": "bool"
            },
            {
              "internalType": "uint256",
              "name": "createdAt",
              "type": "uint256"
            },
            {
              "internalType": "string",
              "name": "hash",
              "type": "string"
            }
          ],
          "internalType": "struct BlockRightsNFT.ArtworkInfo",
          "name": "",
          "type": "tuple"
        }
      ],
      "stateMutability": "view",
      "type": "function"
    },
    {
      "inputs": [
        {
          "internalType": "uint256",
          "name": "tokenId",
          "type": "uint256"
        }
      ],
      "name": "getRoyaltyPercentage",
      "outputs": [
        {
          "internalType": "uint256",
          "name": "",
          "type": "uint256"
        }
      ],
      "stateMutability": "view",
      "type": "function"
    },
    {
      "inputs": [
        {
          "internalType": "address",
          "name": "owner",
          "type": "address"
        },
        {
          "internalType": "address",
          "name": "operator",
          "type": "address"
        }
      ],
      "name": "isApprovedForAll",
      "outputs": [
        {
          "internalType": "bool",
          "name": "",
          "type": "bool"
        }
      ],
      "stateMutability": "view",
      "type": "function"
    },
    {
      "inputs": [
        {
          "internalType": "address",
          "name": "to",
          "type": "address"
        },
        {
          "internalType": "string",
          "name": "title",
          "type": "string"
        },
        {
          "internalType": "string",
          "name": "description",
          "type": "string"
        },
        {
          "internalType": "string",
          "name": "category",
          "type": "string"
        },
        {
          "internalType": "uint256",
          "name": "royaltyPercentage",
          "type": "uint256"
        },
        {
          "internalType": "string",
          "name": "hash",
          "type": "string"
        },
        {
          "internalType": "string",
          "name": "uri",
          "type": "string"
        }
      ],
      "name": "mintArtwork",
      "outputs": [
        {
          "internalType": "uint256",
          "name": "",
          "type": "uint256"
        }
      ],
      "stateMutability": "nonpayable",
      "type": "function"
    },
    {
      "inputs": [],
      "name": "name",
      "outputs": [
        {
          "internalType": "string",
          "name": "",
          "type": "string"
        }
      ],
      "stateMutability": "view",
      "type": "function"
    },
    {
      "inputs": [],
      "name": "owner",
      "outputs": [
        {
          "internalType": "address",
          "name": "",
          "type": "address"
        }
      ],
      "stateMutability": "view",
      "type": "function"
    },
    {
      "inputs": [
        {
          "internalType": "uint256",
          "name": "tokenId",
          "type": "uint256"
        }
      ],
      "name": "ownerOf",
      "outputs": [
        {
          "internalType": "address",
          "name": "",
          "type": "address"
        }
      ],
      "stateMutability": "view",
      "type": "function"
    },
    {
      "inputs": [],
      "name": "renounceOwnership",
      "outputs": [],
      "stateMutability": "nonpayable",
      "type": "function"
    },
    {
      "inputs": [
        {
          "internalType": "address",
          "name": "from",
          "type": "address"
        },
        {
          "internalType": "address",
          "name": "to",
          "type": "address"
        },
        {
          "internalType": "uint256",
          "name": "tokenId",
          "type": "uint256"
        }
      ],
      "name": "safeTransferFrom",
      "outputs": [],
      "stateMutability": "nonpayable",
      "type": "function"
    },
    {
      "inputs": [
        {
          "internalType": "address",
          "name": "from",
          "type": "address"
        },
        {
          "internalType": "address",
          "name": "to",
          "type": "address"
        },
        {
          "internalType": "uint256",
          "name": "tokenId",
          "type": "uint256"
        },
        {
          "internalType": "bytes",
          "name": "data",
          "type": "bytes"
        }
      ],
      "name": "safeTransferFrom",
      "outputs": [],
      "stateMutability": "nonpayable",
      "type": "function"
    },
    {
      "inputs": [
        {
          "internalType": "address",
          "name": "operator",
          "type": "address"
        },
        {
          "internalType": "bool",
          "name": "approved",
          "type": "bool"
        }
      ],
      "name": "setApprovalForAll",
      "outputs": [],
      "stateMutability": "nonpayable",
      "type": "function"
    },
    {
      "inputs": [
        {
          "internalType": "bytes4",
          "name": "interfaceId",
          "type": "bytes4"
        }
      ],
      "name": "supportsInterface",
      "outputs": [
        {
          "internalType": "bool",
          "name": "",
          "type": "bool"
        }
      ],
      "stateMutability": "view",
      "type": "function"
    },
    {
      "inputs": [],
      "name": "symbol",
      "outputs": [
        {
          "internalType": "string",
          "name": "",
          "type": "string"
        }
      ],
      "stateMutability": "view",
      "type": "function"
    },
    {
      "inputs": [
        {
          "internalType": "uint256",
          "name": "tokenId",
          "type": "uint256"
        }
      ],
      "name": "tokenURI",
      "outputs": [
        {
          "internalType": "string",
          "name": "",
          "type": "string"
        }
      ],
      "stateMutability": "view",
      "type": "function"
    },
    {
      "inputs": [
        {
          "internalType": "address",
          "name": "from",
          "type": "address"
        },
        {
          "internalType": "address",
          "name": "to",
          "type": "address"
        },
        {
          "internalType": "uint256",
          "name": "tokenId",
          "type": "uint256"
        }
      ],
      "name": "transferFrom",
      "outputs": [],
      "stateMutability": "nonpayable",
      "type": "function"
    },
    {
      "inputs": [
        {
          "internalType": "address",
          "name": "newOwner",
          "type": "address"
        }
      ],
      "name": "transferOwnership",
      "outputs": [],
      "stateMutability": "nonpayable",
      "type": "function"
    },
    {
      "inputs": [
        {
          "internalType": "string",
          "name": "",
          "type": "string"
        }
      ],
      "name": "usedHashes",
      "outputs": [
        {
          "internalType": "bool",
          "name": "",
          "type": "bool"
        }
      ],
      "stateMutability": "view",
      "type": "function"
    },
    {
      "inputs": [
        {
          "internalType": "uint256",
          "name": "tokenId",
          "type": "uint256"
        },
        {
          "internalType": "bool",
          "name": "verified",
          "type": "bool"
        }
      ],
      "name": "verifyArtwork",
      "outputs": [],
      "stateMutability": "nonpayable",
      "type": "function"
    }
  ],
  "bytecode": "0x60806040523480156200001157600080fd5b506040518060400160405280600f81526020016e109b1bd8dad49a59da1d1cc8139195608a1b81525060405180604001604052806005815260200164109493919560da1b81525081600090816200006991906200019b565b5060016200007882826200019b565b505050620000956200008f620000a060201b60201c565b620000a4565b600160085562000267565b3390565b600780546001600160a01b038381166001600160a01b0319831681179093556040519116919082907f8be0079c531659141344cd1fd0a4f28419497f9722a3daafe3b4186f6b6457e090600090a35050565b634e487b7160e01b600052604160045260246000fd5b600181811c908216806200012157607f821691505b6020821081036200014257634e487b7160e01b600052602260045260246000fd5b50919050565b601f8211156200019657600081815260208120601f850160051c81016020861015620001715750805b601f850160051c820191505b8181101562000192578281556001016200017d565b5050505b505050565b81516001600160401b03811115620001b757620001b7620000f6565b620001cf81620001c884546200010c565b8462000148565b602080601f831160018114620002075760008415620001ee5750858301515b600019600386901b1c1916600185901b17855562000192565b600085815260208120601f198616915b82811015620002385788860151825594840194600190910190840162000217565b5085821015620002575787850151600019600388901b60f8161c191681555b5050505050600190811b01905550565b61251580620002776000396000f3fe608060405234801561001057600080fd5b50600436106101425760003560e01c8063715018a6116100b8578063b88d4fde1161007c578063b88d4fde146102b2578063bd1f5f31146102c5578063c87b56dd146102f3578063e985e9c514610306578063f1f201e814610342578063f2fde38b1461036257600080fd5b8063715018a61461026b57806376a17510146102735780638da5cb5b1461028657806395d89b4114610297578063a22cb4651461029f57600080fd5b80631f1b837f1161010a5780631f1b837f146101e557806323b872dd146101f857806342842e0e1461020b5780634b6026731461021e5780636352211e1461024557806370a082311461025857600080fd5b806301ffc9a71461014757806306fdde031461016f578063081812fc14610184578063095ea7b3146101af5780630cab9f5c146101c4575b600080fd5b61015a610155366004611c6b565b610375565b60405190151581526020015b60405180910390f35b610177610386565b6040516101669190611cd8565b610197610192366004611ceb565b610418565b6040516001600160a01b039091168152602001610166565b6101c26101bd366004611d20565b61043f565b005b6101d76101d2366004611df6565b610559565b604051908152602001610166565b6101c26101f3366004611ef2565b61082b565b6101c2610206366004611f1e565b6108b2565b6101c2610219366004611f1e565b6108e3565b61023161022c366004611ceb565b6108fe565b604051610166989796959493929190611f5a565b610197610253366004611ceb565b610b72565b6101d7610266366004611fde565b610bd2565b6101c2610c58565b6101d7610281366004611ceb565b610c6c565b6007546001600160a01b0316610197565b610177610ca9565b6101c26102ad366004611ff9565b610cb8565b6101c26102c0366004612023565b610cc7565b61015a6102d336600461209f565b8051602081830181018051600b8252928201919093012091525460ff1681565b610177610301366004611ceb565b610cff565b61015a6103143660046120d4565b6001600160a01b03918216600090815260056020908152604080832093909416825291909152205460ff1690565b610355610350366004611ceb565b610d0a565b60405161016691906120fe565b6101c2610370366004611fde565b611025565b60006103808261109e565b92915050565b606060008054610395906121c1565b80601f01602080910402602001604051908101604052809291908181526020018280546103c1906121c1565b801561040e5780601f106103e35761010080835404028352916020019161040e565b820191906000526020600020905b8154815290600101906020018083116103f157829003601f168201915b5050505050905090565b6000610423826110c3565b506000908152600460205260409020546001600160a01b031690565b600061044a82610b72565b9050806001600160a01b0316836001600160a01b0316036104bc5760405162461bcd60e51b815260206004820152602160248201527f4552433732313a20617070726f76616c20746f2063757272656e74206f776e656044820152603960f91b60648201526084015b60405180910390fd5b336001600160a01b03821614806104d857506104d88133610314565b61054a5760405162461bcd60e51b815260206004820152603d60248201527f4552433732313a20617070726f76652063616c6c6572206973206e6f7420746f60448201527f6b656e206f776e6572206f7220617070726f76656420666f7220616c6c00000060648201526084016104b3565b6105548383611113565b505050565b6000610563611181565b61056b6111db565b60008351116105bc5760405162461bcd60e51b815260206004820152601760248201527f4861736820746964616b20626f6c6568206b6f736f6e6700000000000000000060448201526064016104b3565b600b836040516105cc91906121fb565b9081526040519081900360200190205460ff16156106235760405162461bcd60e51b81526020600482015260146024820152732430b9b41039bab230b4103234b3bab730b5b0b760611b60448201526064016104b3565b60648411156106805760405162461bcd60e51b815260206004820152602360248201527f526f79616c747920746964616b20626f6c6568206c656269682064617269203160448201526230302560e81b60648201526084016104b3565b600061068b60095490565b905061069b600980546001019055565b6106a58982611234565b6106af818461124e565b60408051610100810182526001600160a01b038b8116825260208083018c81528385018c9052606084018b9052608084018a9052600060a085018190524260c086015260e085018a9052868152600a909252939020825181546001600160a01b03191692169190911781559151909190600182019061072e9082612265565b50604082015160028201906107439082612265565b50606082015160038201906107589082612265565b506080820151600482015560a082015160058201805460ff191691151591909117905560c0820151600682015560e082015160078201906107999082612265565b509050506001600b856040516107af91906121fb565b908152604051908190036020018120805492151560ff19909316929092179091556001600160a01b038a169082907f47a02f800e670d6e4f16855aec3367a057665d51998edaed65636fa10624969e9061080c908c908990612325565b60405180910390a390506108206001600855565b979650505050505050565b610833611181565b61083c8261130a565b6108585760405162461bcd60e51b81526004016104b390612353565b6000828152600a6020908152604091829020600501805460ff1916841515908117909155915191825283917f2f25d115bfdef0bcdc3bf785c551447527f5f3a8c27d4b7505fc70f61944a702910160405180910390a25050565b6108bc3382611327565b6108d85760405162461bcd60e51b81526004016104b39061237c565b6105548383836113a6565b61055483838360405180602001604052806000815250610cc7565b600a60205260009081526040902080546001820180546001600160a01b03909216929161092a906121c1565b80601f0160208091040260200160405190810160405280929190818152602001828054610956906121c1565b80156109a35780601f10610978576101008083540402835291602001916109a3565b820191906000526020600020905b81548152906001019060200180831161098657829003601f168201915b5050505050908060020180546109b8906121c1565b80601f01602080910402602001604051908101604052809291908181526020018280546109e4906121c1565b8015610a315780601f10610a0657610100808354040283529160200191610a31565b820191906000526020600020905b815481529060010190602001808311610a1457829003601f168201915b505050505090806003018054610a46906121c1565b80601f0160208091040260200160405190810160405280929190818152602001828054610a72906121c1565b8015610abf5780601f10610a9457610100808354040283529160200191610abf565b820191906000526020600020905b815481529060010190602001808311610aa257829003601f168201915b5050506004840154600585015460068601546007870180549697939660ff909316955090935090610aef906121c1565b80601f0160208091040260200160405190810160405280929190818152602001828054610b1b906121c1565b8015610b685780601f10610b3d57610100808354040283529160200191610b68565b820191906000526020600020905b815481529060010190602001808311610b4b57829003601f168201915b5050505050905088565b6000818152600260205260408120546001600160a01b0316806103805760405162461bcd60e51b8152602060048201526018602482015277115490cdcc8c4e881a5b9d985b1a59081d1bdad95b88125160421b60448201526064016104b3565b60006001600160a01b038216610c3c5760405162461bcd60e51b815260206004820152602960248201527f4552433732313a2061646472657373207a65726f206973206e6f7420612076616044820152683634b21037bbb732b960b91b60648201526084016104b3565b506001600160a01b031660009081526003602052604090205490565b610c60611181565b610c6a6000611517565b565b6000610c778261130a565b610c935760405162461bcd60e51b81526004016104b390612353565b506000908152600a602052604090206004015490565b606060018054610395906121c1565b610cc3338383611569565b5050565b610cd13383611327565b610ced5760405162461bcd60e51b81526004016104b39061237c565b610cf984848484611637565b50505050565b60606103808261166a565b610d5d60405180610100016040528060006001600160a01b031681526020016060815260200160608152602001606081526020016000815260200160001515815260200160008152602001606081525090565b610d668261130a565b610d825760405162461bcd60e51b81526004016104b390612353565b6000828152600a60209081526040918290208251610100810190935280546001600160a01b031683526001810180549192840191610dbf906121c1565b80601f0160208091040260200160405190810160405280929190818152602001828054610deb906121c1565b8015610e385780601f10610e0d57610100808354040283529160200191610e38565b820191906000526020600020905b815481529060010190602001808311610e1b57829003601f168201915b50505050508152602001600282018054610e51906121c1565b80601f0160208091040260200160405190810160405280929190818152602001828054610e7d906121c1565b8015610eca5780601f10610e9f57610100808354040283529160200191610eca565b820191906000526020600020905b815481529060010190602001808311610ead57829003601f168201915b50505050508152602001600382018054610ee3906121c1565b80601f0160208091040260200160405190810160405280929190818152602001828054610f0f906121c1565b8015610f5c5780601f10610f3157610100808354040283529160200191610f5c565b820191906000526020600020905b815481529060010190602001808311610f3f57829003601f168201915b505050918352505060048201546020820152600582015460ff161515604082015260068201546060820152600782018054608090920191610f9c906121c1565b80601f0160208091040260200160405190810160405280929190818152602001828054610fc8906121c1565b80156110155780601f10610fea57610100808354040283529160200191611015565b820191906000526020600020905b815481529060010190602001808311610ff857829003601f168201915b5050505050815250509050919050565b61102d611181565b6001600160a01b0381166110925760405162461bcd60e51b815260206004820152602660248201527f4f776e61626c653a206e6577206f776e657220697320746865207a65726f206160448201526564647265737360d01b60648201526084016104b3565b61109b81611517565b50565b60006001600160e01b03198216632483248360e11b1480610380575061038082611772565b6110cc8161130a565b61109b5760405162461bcd60e51b8152602060048201526018602482015277115490cdcc8c4e881a5b9d985b1a59081d1bdad95b88125160421b60448201526064016104b3565b600081815260046020526040902080546001600160a01b0319166001600160a01b038416908117909155819061114882610b72565b6001600160a01b03167f8c5be1e5ebec7d5bd14f71427d1e84f3dd0314c0f7b2291e5b200ac8c7c3b92560405160405180910390a45050565b6007546001600160a01b03163314610c6a5760405162461bcd60e51b815260206004820181905260248201527f4f776e61626c653a2063616c6c6572206973206e6f7420746865206f776e657260448201526064016104b3565b60026008540361122d5760405162461bcd60e51b815260206004820152601f60248201527f5265656e7472616e637947756172643a207265656e7472616e742063616c6c0060448201526064016104b3565b6002600855565b610cc38282604051806020016040528060008152506117c2565b6112578261130a565b6112ba5760405162461bcd60e51b815260206004820152602e60248201527f45524337323155524953746f726167653a2055524920736574206f66206e6f6e60448201526d32bc34b9ba32b73a103a37b5b2b760911b60648201526084016104b3565b60008281526006602052604090206112d28282612265565b506040518281527ff8e1a15aba9398e019f0b49df1a4fde98ee17ae345cb5f6b5e2c27f5033e8ce79060200160405180910390a15050565b6000908152600260205260409020546001600160a01b0316151590565b60008061133383610b72565b9050806001600160a01b0316846001600160a01b0316148061137a57506001600160a01b0380821660009081526005602090815260408083209388168352929052205460ff165b8061139e5750836001600160a01b031661139384610418565b6001600160a01b0316145b949350505050565b826001600160a01b03166113b982610b72565b6001600160a01b0316146113df5760405162461bcd60e51b81526004016104b3906123c9565b6001600160a01b0382166114415760405162461bcd60e51b8152602060048201526024808201527f4552433732313a207472616e7366657220746f20746865207a65726f206164646044820152637265737360e01b60648201526084016104b3565b61144e83838360016117f5565b826001600160a01b031661146182610b72565b6001600160a01b0316146114875760405162461bcd60e51b81526004016104b3906123c9565b600081815260046020908152604080832080546001600160a01b03199081169091556001600160a01b0387811680865260038552838620805460001901905590871680865283862080546001019055868652600290945282852080549092168417909155905184937fddf252ad1be2c89b69c2b068fc378daa952ba7f163c4a11628f55a4df523b3ef91a4505050565b600780546001600160a01b038381166001600160a01b0319831681179093556040519116919082907f8be0079c531659141344cd1fd0a4f28419497f9722a3daafe3b4186f6b6457e090600090a35050565b816001600160a01b0316836001600160a01b0316036115ca5760405162461bcd60e51b815260206004820152601960248201527f4552433732313a20617070726f766520746f2063616c6c65720000000000000060448201526064016104b3565b6001600160a01b03838116600081815260056020908152604080832094871680845294825291829020805460ff191686151590811790915591519182527f17307eab39ab6107e8899845ad3d59bd9653f200f220920489ca2b5937696c31910160405180910390a3505050565b6116428484846113a6565b61164e848484846117fa565b610cf95760405162461bcd60e51b81526004016104b39061240e565b6060611675826110c3565b6000828152600660205260408120805461168e906121c1565b80601f01602080910402602001604051908101604052809291908181526020018280546116ba906121c1565b80156117075780601f106116dc57610100808354040283529160200191611707565b820191906000526020600020905b8154815290600101906020018083116116ea57829003601f168201915b50505050509050600061172560408051602081019091526000815290565b90508051600003611737575092915050565b815115611769578082604051602001611751929190612460565b60405160208183030381529060405292505050919050565b61139e846118fb565b60006001600160e01b031982166380ac58cd60e01b14806117a357506001600160e01b03198216635b5e139f60e01b145b8061038057506301ffc9a760e01b6001600160e01b0319831614610380565b6117cc838361196f565b6117d960008484846117fa565b6105545760405162461bcd60e51b81526004016104b39061240e565b610cf9565b60006001600160a01b0384163b156118f057604051630a85bd0160e11b81526001600160a01b0385169063150b7a029061183e90339089908890889060040161248f565b6020604051808303816000875af1925050508015611879575060408051601f3d908101601f19168201909252611876918101906124c2565b60015b6118d6573d8080156118a7576040519150601f19603f3d011682016040523d82523d6000602084013e6118ac565b606091505b5080516000036118ce5760405162461bcd60e51b81526004016104b39061240e565b805181602001fd5b6001600160e01b031916630a85bd0160e11b14905061139e565b506001949350505050565b6060611906826110c3565b600061191d60408051602081019091526000815290565b9050600081511161193d5760405180602001604052806000815250611968565b8061194784611aea565b604051602001611958929190612460565b6040516020818303038152906040525b9392505050565b6001600160a01b0382166119c55760405162461bcd60e51b815260206004820181905260248201527f4552433732313a206d696e7420746f20746865207a65726f206164647265737360448201526064016104b3565b6119ce8161130a565b15611a1b5760405162461bcd60e51b815260206004820152601c60248201527f4552433732313a20746f6b656e20616c7265616479206d696e7465640000000060448201526064016104b3565b611a296000838360016117f5565b611a328161130a565b15611a7f5760405162461bcd60e51b815260206004820152601c60248201527f4552433732313a20746f6b656e20616c7265616479206d696e7465640000000060448201526064016104b3565b6001600160a01b038216600081815260036020908152604080832080546001019055848352600290915280822080546001600160a01b0319168417905551839291907fddf252ad1be2c89b69c2b068fc378daa952ba7f163c4a11628f55a4df523b3ef908290a45050565b60606000611af783611b7d565b600101905060008167ffffffffffffffff811115611b1757611b17611d4a565b6040519080825280601f01601f191660200182016040528015611b41576020820181803683370190505b5090508181016020015b600019016f181899199a1a9b1b9c1cb0b131b232b360811b600a86061a8153600a8504945084611b4b57509392505050565b60008072184f03e93ff9f4daa797ed6e38ed64bf6a1f0160401b8310611bbc5772184f03e93ff9f4daa797ed6e38ed64bf6a1f0160401b830492506040015b6d04ee2d6d415b85acef81000000008310611be8576d04ee2d6d415b85acef8100000000830492506020015b662386f26fc100008310611c0657662386f26fc10000830492506010015b6305f5e1008310611c1e576305f5e100830492506008015b6127108310611c3257612710830492506004015b60648310611c44576064830492506002015b600a83106103805760010192915050565b6001600160e01b03198116811461109b57600080fd5b600060208284031215611c7d57600080fd5b813561196881611c55565b60005b83811015611ca3578181015183820152602001611c8b565b50506000910152565b60008151808452611cc4816020860160208601611c88565b601f01601f19169290920160200192915050565b6020815260006119686020830184611cac565b600060208284031215611cfd57600080fd5b5035919050565b80356001600160a01b0381168114611d1b57600080fd5b919050565b60008060408385031215611d3357600080fd5b611d3c83611d04565b946020939093013593505050565b634e487b7160e01b600052604160045260246000fd5b600067ffffffffffffffff80841115611d7b57611d7b611d4a565b604051601f8501601f19908116603f01168101908282118183101715611da357611da3611d4a565b81604052809350858152868686011115611dbc57600080fd5b858560208301376000602087830101525050509392505050565b600082601f830112611de757600080fd5b61196883833560208501611d60565b600080600080600080600060e0888a031215611e1157600080fd5b611e1a88611d04565b9650602088013567ffffffffffffffff80821115611e3757600080fd5b611e438b838c01611dd6565b975060408a0135915080821115611e5957600080fd5b611e658b838c01611dd6565b965060608a0135915080821115611e7b57600080fd5b611e878b838c01611dd6565b955060808a0135945060a08a0135915080821115611ea457600080fd5b611eb08b838c01611dd6565b935060c08a0135915080821115611ec657600080fd5b50611ed38a828b01611dd6565b91505092959891949750929550565b80358015158114611d1b57600080fd5b60008060408385031215611f0557600080fd5b82359150611f1560208401611ee2565b90509250929050565b600080600060608486031215611f3357600080fd5b611f3c84611d04565b9250611f4a60208501611d04565b9150604084013590509250925092565b6001600160a01b038916815261010060208201819052600090611f7f8382018b611cac565b90508281036040840152611f93818a611cac565b90508281036060840152611fa78189611cac565b905086608084015285151560a08401528460c084015282810360e0840152611fcf8185611cac565b9b9a5050505050505050505050565b600060208284031215611ff057600080fd5b61196882611d04565b6000806040838503121561200c57600080fd5b61201583611d04565b9150611f1560208401611ee2565b6000806000806080858703121561203957600080fd5b61204285611d04565b935061205060208601611d04565b925060408501359150606085013567ffffffffffffffff81111561207357600080fd5b8501601f8101871361208457600080fd5b61209387823560208401611d60565b91505092959194509250565b6000602082840312156120b157600080fd5b813567ffffffffffffffff8111156120c857600080fd5b61139e84828501611dd6565b600080604083850312156120e757600080fd5b6120f083611d04565b9150611f1560208401611d04565b602081526121186020820183516001600160a01b03169052565b60006020830151610100806040850152612136610120850183611cac565b91506040850151601f19808685030160608701526121548483611cac565b935060608701519150808685030160808701526121718483611cac565b9350608087015160a087015260a0870151915061219260c087018315159052565b60c087015160e087015260e08701519150808685030183870152506121b78382611cac565b9695505050505050565b600181811c908216806121d557607f821691505b6020821081036121f557634e487b7160e01b600052602260045260246000fd5b50919050565b6000825161220d818460208701611c88565b9190910192915050565b601f82111561055457600081815260208120601f850160051c8101602086101561223e5750805b601f850160051c820191505b8181101561225d5782815560010161224a565b505050505050565b815167ffffffffffffffff81111561227f5761227f611d4a565b6122938161228d84546121c1565b84612217565b602080601f8311600181146122c857600084156122b05750858301515b600019600386901b1c1916600185901b17855561225d565b600085815260208120601f198616915b828110156122f7578886015182559484019460019091019084016122d8565b50858210156123155787850151600019600388901b60f8161c191681555b5050505050600190811b01905550565b6040815260006123386040830185611cac565b828103602084015261234a8185611cac565b95945050505050565b6020808252600f908201526e546f6b656e20746964616b2061646160881b604082015260600190565b6020808252602d908201527f4552433732313a2063616c6c6572206973206e6f7420746f6b656e206f776e6560408201526c1c881bdc88185c1c1c9bdd9959609a1b606082015260800190565b60208082526025908201527f4552433732313a207472616e736665722066726f6d20696e636f72726563742060408201526437bbb732b960d91b606082015260800190565b60208082526032908201527f4552433732313a207472616e7366657220746f206e6f6e20455243373231526560408201527131b2b4bb32b91034b6b83632b6b2b73a32b960711b606082015260800190565b60008351612472818460208801611c88565b835190830190612486818360208801611c88565b01949350505050565b6001600160a01b03858116825284166020820152604081018390526080606082018190526000906121b790830184611cac565b6000602082840312156124d457600080fd5b815161196881611c5556fea2646970667358221220dc3369a17fbfdb01eebe16e4edcdbd50f63b088f0c3ddfeef5ab59866cc4fded64736f6c63430008130033",
  "linkReferences": {},
  "deployedLinkReferences": {}
}