{
  "_format": "hh-sol-artifact-1",
  "contractName": "BlockRightsVerification",
  "sourceName": "contracts_src/BlockRightsVerification.sol",
  "abi": [
    {
      "anonymous": false,
      "inputs": [
        {
          "indexed": true,
          "internalType": "string",
          "name": "hash",
          "type": "string"
        },
        {
          "indexed": true,
          "internalType": "address",
          "name": "registrant",
          "type": "address"
        },
        {
          "indexed": false,
          "internalType": "string",
          "name": "metadata",
          "type": "string"
        }
      ],
      "name": "HashRegistered",
      "type": "event"
    },
    {
      "anonymous": false,
      "inputs": [
        {
          "indexed": true,
          "internalType": "string",
          "name": "hash",
          "type": "string"
        },
        {
          "indexed": true,
          "internalType": "address",
          "name": "verifier",
          "type": "address"
        },
        {
          "indexed": false,
          "internalType": "bool",
          "name": "verified",
          "type": "bool"
        },
        {
          "indexed": false,
          "internalType": "string",
          "name": "metadata",
          "type": "string"
        }
      ],
      "name": "HashVerified",
      "type": "event"
    },
    {
      "anonymous": false,
      "inputs": [
        {
          "indexed": true,
          "internalType": "address",
          "name": "previousOwner",
          "type": "address"
        },
        {
          "indexed": true,
          "internalType": "address",
          "name": "newOwner",
          "type": "address"
        }
      ],
      "name": "OwnershipTransferred",
      "type": "event"
    },
    {
      "inputs": [
        {
          "internalType": "string[]",
          "name": "hashes",
          "type": "string[]"
        },
        {
          "internalType": "bool[]",
          "name": "verified",
          "type": "bool[]"
        }
      ],
      "name": "batchVerifyHashes",
      "outputs": [],
      "stateMutability": "nonpayable",
      "type": "function"
    },
    {
      "inputs": [
        {
          "internalType": "string",
          "name": "hash",
          "type": "string"
        }
      ],
      "name": "getVerificationInfo",
      "outputs": [
        {
          "components": [
            {
              "internalType": "string",
              "name": "hash",
              "type": "string"
            },
            {
              "internalType": "address",
              "name": "verifier",
              "type": "address"
            },
            {
              "internalType": "bool",
              "name": "isVerified",
              "type": "bool"
            },
            {
              "internalType": "uint256",
              "name": "verifiedAt",
              "type": "uint256"
            },
            {
              "internalType": "string",
              "name": "metadata",
              "type": "string"
            }
          ],
          "internalType": "struct BlockRightsVerification.VerificationRecord",
          "name": "",
          "type": "tuple"
        }
      ],
      "stateMutability": "view",
      "type": "function"
    },
    {
      "inputs": [
        {
          "internalType": "string",
          "name": "hash",
          "type": "string"
        }
      ],
      "name": "isHashVerified",
      "outputs": [
        {
          "internalType": "bool",
          "name": "",
          "type": "bool"
        }
      ],
      "stateMutability": "view",
      "type": "function"
    },
    {
      "inputs": [],
      "name": "owner",
      "outputs": [
        {
          "internalType": "address",
          "name": "",
          "type": "address"
        }
      ],
      "stateMutability": "view",
      "type": "function"
    },
    {
      "inputs": [
        {
          "internalType": "string",
          "name": "hash",
          "type": "string"
        },
        {
          "internalType": "string",
          "name": "metadata",
          "type": "string"
        }
      ],
      "name": "registerHash",
      "outputs": [],
      "stateMutability": "nonpayable",
      "type": "function"
    },
    {
      "inputs": [],
      "name": "renounceOwnership",
      "outputs": [],
      "stateMutability": "nonpayable",
      "type": "function"
    },
    {
      "inputs": [
        {
          "internalType": "address",
          "name": "newOwner",
          "type": "address"
        }
      ],
      "name": "transferOwnership",
      "outputs": [],
      "stateMutability": "nonpayable",
      "type": "function"
    },
    {
      "inputs": [
        {
          "internalType": "string",
          "name": "",
          "type": "string"
        }
      ],
      "name": "verifications",
      "outputs": [
        {
          "internalType": "string",
          "name": "hash",
          "type": "string"
        },
        {
          "internalType": "address",
          "name": "verifier",
          "type": "address"
        },
        {
          "internalType": "bool",
          "name": "isVerified",
          "type": "bool"
        },
        {
          "internalType": "uint256",
          "name": "verifiedAt",
          "type": "uint256"
        },
        {
          "internalType": "string",
          "name": "metadata",
          "type": "string"
        }
      ],
      "stateMutability": "view",
      "type": "function"
    },
    {
      "inputs": [
        {
          "internalType": "string",
          "name": "",
          "type": "string"
        }
      ],
      "name": "verifiedHashes",
      "outputs": [
        {
          "internalType": "bool",
          "name": "",
          "type": "bool"
        }
      ],
      "stateMutability": "view",
      "type": "function"
    },
    {
      "inputs": [
        {
          "internalType": "string",
          "name": "hash",
          "type": "string"
        },
        {
          "internalType": "bool",
          "name": "verified",
          "type": "bool"
        }
      ],
      "name": "verifyHash",
      "outputs": [],
      "stateMutability": "nonpayable",
      "type": "function"
    }
  ],
  "bytecode": "0x608060405234801561001057600080fd5b5061001a33610023565b60018055610073565b600080546001600160a01b038381166001600160a01b0319831681178455604051919092169283917f8be0079c531659141344cd1fd0a4f28419497f9722a3daafe3b4186f6b6457e09190a35050565b6113ef806100826000396000f3fe608060405234801561001057600080fd5b506004361061009e5760003560e01c80638da5cb5b116100665780638da5cb5b146101295780639b5b2ef614610144578063a300739e14610168578063a91f947d14610188578063f2fde38b1461019b57600080fd5b80630da7d835146100a35780630da847bd146100e657806334b9d395146100fb578063715018a61461010e5780637327ccef14610116575b600080fd5b6100d16100b1366004610dd3565b805160208183018101805160038252928201919093012091525460ff1681565b60405190151581526020015b60405180910390f35b6100f96100f4366004610ebb565b6101ae565b005b6100f9610109366004610f8f565b6104c3565b6100f96106bd565b6100f9610124366004610fdd565b6106d1565b6000546040516001600160a01b0390911681526020016100dd565b610157610152366004610dd3565b610879565b6040516100dd959493929190611087565b61017b610176366004610dd3565b6109d4565b6040516100dd91906110d6565b6100d1610196366004610dd3565b610b98565b6100f96101a9366004611140565b610bf9565b6101b6610c72565b805182511461020c5760405162461bcd60e51b815260206004820152601760248201527f4172726179206c656e67746820746964616b2073616d6100000000000000000060448201526064015b60405180910390fd5b60005b82518110156104be57600083828151811061022c5761022c611170565b602002602001015151118015610290575060006001600160a01b0316600284838151811061025c5761025c611170565b60200260200101516040516102719190611186565b908152604051908190036020019020600101546001600160a01b031614155b156104ac578181815181106102a7576102a7611170565b602002602001015160028483815181106102c3576102c3611170565b60200260200101516040516102d89190611186565b908152602001604051809103902060010160146101000a81548160ff02191690831515021790555042600284838151811061031557610315611170565b602002602001015160405161032a9190611186565b90815260200160405180910390206002018190555081818151811061035157610351611170565b6020026020010151600384838151811061036d5761036d611170565b60200260200101516040516103829190611186565b908152602001604051809103902060006101000a81548160ff02191690831515021790555060028382815181106103bb576103bb611170565b60200260200101516040516103d09190611186565b9081526040519081900360200190206001015483516001600160a01b039091169084908390811061040357610403611170565b60200260200101516040516104189190611186565b60405180910390207fd08ca2d4848d5594be0fb26d6d1808af859b0514eae63ced91b60a4ed657e66f84848151811061045357610453611170565b6020026020010151600287868151811061046f5761046f611170565b60200260200101516040516104849190611186565b90815260200160405180910390206003016040516104a39291906111dc565b60405180910390a35b806104b681611271565b91505061020f565b505050565b6104cb610c72565b60008251116105165760405162461bcd60e51b81526020600482015260176024820152764861736820746964616b20626f6c6568206b6f736f6e6760481b6044820152606401610203565b60006001600160a01b03166002836040516105319190611186565b908152604051908190036020019020600101546001600160a01b0316036105915760405162461bcd60e51b81526020600482015260146024820152732430b9b4103132b63ab6903a32b93230b33a30b960611b6044820152606401610203565b806002836040516105a29190611186565b908152602001604051809103902060010160146101000a81548160ff021916908315150217905550426002836040516105db9190611186565b908152602001604051809103902060020181905550806003836040516106019190611186565b908152604051908190036020018120805492151560ff1990931692909217909155600290610630908490611186565b908152604051908190036020018120600101546001600160a01b031690610658908490611186565b60405180910390207fd08ca2d4848d5594be0fb26d6d1808af859b0514eae63ced91b60a4ed657e66f836002866040516106929190611186565b90815260200160405180910390206003016040516106b19291906111dc565b60405180910390a35050565b6106c5610c72565b6106cf6000610ccc565b565b600082511161071c5760405162461bcd60e51b81526020600482015260176024820152764861736820746964616b20626f6c6568206b6f736f6e6760481b6044820152606401610203565b60038260405161072c9190611186565b9081526040519081900360200190205460ff16156107835760405162461bcd60e51b81526020600482015260146024820152732430b9b41039bab230b4103a32b93230b33a30b960611b6044820152606401610203565b6040805160a081018252838152336020820152600081830181905260608201526080810183905290516002906107ba908590611186565b908152604051908190036020019020815181906107d790826112e6565b50602082015160018201805460408501511515600160a01b026001600160a81b03199091166001600160a01b0390931692909217919091179055606082015160028201556080820151600382019061082f90826112e6565b5050604051339150610842908490611186565b60405180910390207f7fbd3135bf623fb35595d3160707a1c2ebb63e26da3552dddd09df8936bbabf8836040516106b191906113a6565b805160208183018101805160028252928201919093012091528054819061089f906111a2565b80601f01602080910402602001604051908101604052809291908181526020018280546108cb906111a2565b80156109185780601f106108ed57610100808354040283529160200191610918565b820191906000526020600020905b8154815290600101906020018083116108fb57829003601f168201915b505050506001830154600284015460038501805494956001600160a01b03841695600160a01b90940460ff1694509192610951906111a2565b80601f016020809104026020016040519081016040528092919081815260200182805461097d906111a2565b80156109ca5780601f1061099f576101008083540402835291602001916109ca565b820191906000526020600020905b8154815290600101906020018083116109ad57829003601f168201915b5050505050905085565b610a116040518060a001604052806060815260200160006001600160a01b0316815260200160001515815260200160008152602001606081525090565b600282604051610a219190611186565b90815260200160405180910390206040518060a0016040529081600082018054610a4a906111a2565b80601f0160208091040260200160405190810160405280929190818152602001828054610a76906111a2565b8015610ac35780601f10610a9857610100808354040283529160200191610ac3565b820191906000526020600020905b815481529060010190602001808311610aa657829003601f168201915b505050918352505060018201546001600160a01b0381166020830152600160a01b900460ff161515604082015260028201546060820152600382018054608090920191610b0f906111a2565b80601f0160208091040260200160405190810160405280929190818152602001828054610b3b906111a2565b8015610b885780601f10610b5d57610100808354040283529160200191610b88565b820191906000526020600020905b815481529060010190602001808311610b6b57829003601f168201915b5050505050815250509050919050565b6000600382604051610baa9190611186565b9081526040519081900360200190205460ff168015610bf35750600282604051610bd49190611186565b9081526040519081900360200190206001015460ff600160a01b909104165b92915050565b610c01610c72565b6001600160a01b038116610c665760405162461bcd60e51b815260206004820152602660248201527f4f776e61626c653a206e6577206f776e657220697320746865207a65726f206160448201526564647265737360d01b6064820152608401610203565b610c6f81610ccc565b50565b6000546001600160a01b031633146106cf5760405162461bcd60e51b815260206004820181905260248201527f4f776e61626c653a2063616c6c6572206973206e6f7420746865206f776e65726044820152606401610203565b600080546001600160a01b038381166001600160a01b0319831681178455604051919092169283917f8be0079c531659141344cd1fd0a4f28419497f9722a3daafe3b4186f6b6457e09190a35050565b634e487b7160e01b600052604160045260246000fd5b604051601f8201601f1916810167ffffffffffffffff81118282101715610d5b57610d5b610d1c565b604052919050565b600082601f830112610d7457600080fd5b813567ffffffffffffffff811115610d8e57610d8e610d1c565b610da1601f8201601f1916602001610d32565b818152846020838601011115610db657600080fd5b816020850160208301376000918101602001919091529392505050565b600060208284031215610de557600080fd5b813567ffffffffffffffff811115610dfc57600080fd5b610e0884828501610d63565b949350505050565b600067ffffffffffffffff821115610e2a57610e2a610d1c565b5060051b60200190565b80358015158114610e4457600080fd5b919050565b600082601f830112610e5a57600080fd5b81356020610e6f610e6a83610e10565b610d32565b82815260059290921b84018101918181019086841115610e8e57600080fd5b8286015b84811015610eb057610ea381610e34565b8352918301918301610e92565b509695505050505050565b60008060408385031215610ece57600080fd5b823567ffffffffffffffff80821115610ee657600080fd5b818501915085601f830112610efa57600080fd5b81356020610f0a610e6a83610e10565b82815260059290921b84018101918181019089841115610f2957600080fd5b8286015b84811015610f6157803586811115610f455760008081fd5b610f538c86838b0101610d63565b845250918301918301610f2d565b5096505086013592505080821115610f7857600080fd5b50610f8585828601610e49565b9150509250929050565b60008060408385031215610fa257600080fd5b823567ffffffffffffffff811115610fb957600080fd5b610fc585828601610d63565b925050610fd460208401610e34565b90509250929050565b60008060408385031215610ff057600080fd5b823567ffffffffffffffff8082111561100857600080fd5b61101486838701610d63565b9350602085013591508082111561102a57600080fd5b50610f8585828601610d63565b60005b8381101561105257818101518382015260200161103a565b50506000910152565b60008151808452611073816020860160208601611037565b601f01601f19169290920160200192915050565b60a08152600061109a60a083018861105b565b6001600160a01b038716602084015285151560408401526060830185905282810360808401526110ca818561105b565b98975050505050505050565b602081526000825160a060208401526110f260c084018261105b565b905060018060a01b036020850151166040840152604084015115156060840152606084015160808401526080840151601f198483030160a0850152611137828261105b565b95945050505050565b60006020828403121561115257600080fd5b81356001600160a01b038116811461116957600080fd5b9392505050565b634e487b7160e01b600052603260045260246000fd5b60008251611198818460208701611037565b9190910192915050565b600181811c908216806111b657607f821691505b6020821081036111d657634e487b7160e01b600052602260045260246000fd5b50919050565b821515815260006020604081840152600084546111f8816111a2565b806040870152606060018084166000811461121a576001811461123457611262565b60ff1985168984015283151560051b890183019550611262565b896000528660002060005b8581101561125a5781548b820186015290830190880161123f565b8a0184019650505b50939998505050505050505050565b60006001820161129157634e487b7160e01b600052601160045260246000fd5b5060010190565b601f8211156104be57600081815260208120601f850160051c810160208610156112bf5750805b601f850160051c820191505b818110156112de578281556001016112cb565b505050505050565b815167ffffffffffffffff81111561130057611300610d1c565b6113148161130e84546111a2565b84611298565b602080601f83116001811461134957600084156113315750858301515b600019600386901b1c1916600185901b1785556112de565b600085815260208120601f198616915b8281101561137857888601518255948401946001909101908401611359565b50858210156113965787850151600019600388901b60f8161c191681555b5050505050600190811b01905550565b602081526000611169602083018461105b56fea26469706673582212206e4bf64fd5353e4c2bc195818461e23dcd47c4b037fc2027425fadd1b817064964736f6c63430008130033",
  "linkReferences": {},
  "deployedLinkReferences": {}
}