{
  "_format": "hh-sol-artifact-1",
  "contractName": "BlockRightsMarketplace",
  "sourceName": "contracts_src/BlockRightsMarketplace.sol",
  "abi": [
    {
      "anonymous": false,
      "inputs": [
        {
          "indexed": true,
          "internalType": "uint256",
          "name": "listingId",
          "type": "uint256"
        }
      ],
      "name": "ListingCancelled",
      "type": "event"
    },
    {
      "anonymous": false,
      "inputs": [
        {
          "indexed": true,
          "internalType": "uint256",
          "name": "listingId",
          "type": "uint256"
        },
        {
          "indexed": true,
          "internalType": "address",
          "name": "seller",
          "type": "address"
        },
        {
          "indexed": true,
          "internalType": "address",
          "name": "nftContract",
          "type": "address"
        },
        {
          "indexed": false,
          "internalType": "uint256",
          "name": "tokenId",
          "type": "uint256"
        },
        {
          "indexed": false,
          "internalType": "uint256",
          "name": "price",
          "type": "uint256"
        }
      ],
      "name": "NFTListed",
      "type": "event"
    },
    {
      "anonymous": false,
      "inputs": [
        {
          "indexed": true,
          "internalType": "uint256",
          "name": "listingId",
          "type": "uint256"
        },
        {
          "indexed": true,
          "internalType": "address",
          "name": "buyer",
          "type": "address"
        },
        {
          "indexed": true,
          "internalType": "address",
          "name": "seller",
          "type": "address"
        },
        {
          "indexed": false,
          "internalType": "uint256",
          "name": "price",
          "type": "uint256"
        },
        {
          "indexed": false,
          "internalType": "uint256",
          "name": "royaltyAmount",
          "type": "uint256"
        }
      ],
      "name": "NFTSold",
      "type": "event"
    },
    {
      "anonymous": false,
      "inputs": [
        {
          "indexed": true,
          "internalType": "address",
          "name": "previousOwner",
          "type": "address"
        },
        {
          "indexed": true,
          "internalType": "address",
          "name": "newOwner",
          "type": "address"
        }
      ],
      "name": "OwnershipTransferred",
      "type": "event"
    },
    {
      "inputs": [
        {
          "internalType": "uint256",
          "name": "listingId",
          "type": "uint256"
        }
      ],
      "name": "buyNFT",
      "outputs": [],
      "stateMutability": "payable",
      "type": "function"
    },
    {
      "inputs": [
        {
          "internalType": "uint256",
          "name": "listingId",
          "type": "uint256"
        }
      ],
      "name": "cancelListing",
      "outputs": [],
      "stateMutability": "nonpayable",
      "type": "function"
    },
    {
      "inputs": [],
      "name": "getActiveListings",
      "outputs": [
        {
          "internalType": "uint256[]",
          "name": "",
          "type": "uint256[]"
        }
      ],
      "stateMutability": "view",
      "type": "function"
    },
    {
      "inputs": [
        {
          "internalType": "uint256",
          "name": "listingId",
          "type": "uint256"
        }
      ],
      "name": "getListing",
      "outputs": [
        {
          "components": [
            {
              "internalType": "address",
              "name": "seller",
              "type": "address"
            },
            {
              "internalType": "address",
              "name": "nftContract",
              "type": "address"
            },
            {
              "internalType": "uint256",
              "name": "tokenId",
              "type": "uint256"
            },
            {
              "internalType": "uint256",
              "name": "price",
              "type": "uint256"
            },
            {
              "internalType": "bool",
              "name": "isActive",
              "type": "bool"
            },
            {
              "internalType": "uint256",
              "name": "createdAt",
              "type": "uint256"
            }
          ],
          "internalType": "struct BlockRightsMarketplace.Listing",
          "name": "",
          "type": "tuple"
        }
      ],
      "stateMutability": "view",
      "type": "function"
    },
    {
      "inputs": [
        {
          "internalType": "address",
          "name": "nftContract",
          "type": "address"
        },
        {
          "internalType": "uint256",
          "name": "tokenId",
          "type": "uint256"
        },
        {
          "internalType": "uint256",
          "name": "price",
          "type": "uint256"
        }
      ],
      "name": "listNFT",
      "outputs": [
        {
          "internalType": "uint256",
          "name": "",
          "type": "uint256"
        }
      ],
      "stateMutability": "nonpayable",
      "type": "function"
    },
    {
      "inputs": [],
      "name": "listingCounter",
      "outputs": [
        {
          "internalType": "uint256",
          "name": "",
          "type": "uint256"
        }
      ],
      "stateMutability": "view",
      "type": "function"
    },
    {
      "inputs": [
        {
          "internalType": "uint256",
          "name": "",
          "type": "uint256"
        }
      ],
      "name": "listings",
      "outputs": [
        {
          "internalType": "address",
          "name": "seller",
          "type": "address"
        },
        {
          "internalType": "address",
          "name": "nftContract",
          "type": "address"
        },
        {
          "internalType": "uint256",
          "name": "tokenId",
          "type": "uint256"
        },
        {
          "internalType": "uint256",
          "name": "price",
          "type": "uint256"
        },
        {
          "internalType": "bool",
          "name": "isActive",
          "type": "bool"
        },
        {
          "internalType": "uint256",
          "name": "createdAt",
          "type": "uint256"
        }
      ],
      "stateMutability": "view",
      "type": "function"
    },
    {
      "inputs": [],
      "name": "marketplaceFee",
      "outputs": [
        {
          "internalType": "uint256",
          "name": "",
          "type": "uint256"
        }
      ],
      "stateMutability": "view",
      "type": "function"
    },
    {
      "inputs": [
        {
          "internalType": "address",
          "name": "",
          "type": "address"
        },
        {
          "internalType": "address",
          "name": "",
          "type": "address"
        },
        {
          "internalType": "uint256",
          "name": "",
          "type": "uint256"
        },
        {
          "internalType": "bytes",
          "name": "",
          "type": "bytes"
        }
      ],
      "name": "onERC721Received",
      "outputs": [
        {
          "internalType": "bytes4",
          "name": "",
          "type": "bytes4"
        }
      ],
      "stateMutability": "nonpayable",
      "type": "function"
    },
    {
      "inputs": [],
      "name": "owner",
      "outputs": [
        {
          "internalType": "address",
          "name": "",
          "type": "address"
        }
      ],
      "stateMutability": "view",
      "type": "function"
    },
    {
      "inputs": [],
      "name": "renounceOwnership",
      "outputs": [],
      "stateMutability": "nonpayable",
      "type": "function"
    },
    {
      "inputs": [
        {
          "internalType": "uint256",
          "name": "newFee",
          "type": "uint256"
        }
      ],
      "name": "setMarketplaceFee",
      "outputs": [],
      "stateMutability": "nonpayable",
      "type": "function"
    },
    {
      "inputs": [
        {
          "internalType": "address",
          "name": "newOwner",
          "type": "address"
        }
      ],
      "name": "transferOwnership",
      "outputs": [],
      "stateMutability": "nonpayable",
      "type": "function"
    },
    {
      "inputs": [
        {
          "internalType": "uint256",
          "name": "listingId",
          "type": "uint256"
        },
        {
          "internalType": "uint256",
          "name": "newPrice",
          "type": "uint256"
        }
      ],
      "name": "updateListingPrice",
      "outputs": [],
      "stateMutability": "nonpayable",
      "type": "function"
    },
    {
      "inputs": [],
      "name": "withdrawFees",
      "outputs": [],
      "stateMutability": "nonpayable",
      "type": "function"
    }
  ],
  "bytecode": "0x608060405260fa60045534801561001557600080fd5b50600160005561002433610029565b61007b565b600180546001600160a01b038381166001600160a01b0319831681179093556040519116919082907f8be0079c531659141344cd1fd0a4f28419497f9722a3daafe3b4186f6b6457e090600090a35050565b61159e8061008a6000396000f3fe6080604052600436106100e85760003560e01c8063715018a61161008a578063ad05f1b411610059578063ad05f1b414610348578063c460494314610368578063de74e57b14610388578063f2fde38b1461042457600080fd5b8063715018a6146102c957806387c35bc0146102de5780638da5cb5b146103005780639407ea981461032857600080fd5b8063476343ee116100c6578063476343ee1461026757806351ed82881461027c5780636a1669641461028f5780636c2c9c7d146102b357600080fd5b8063107a274a146100ed578063150b7a0214610201578063305a67a814610245575b600080fd5b3480156100f957600080fd5b506101a1610108366004611090565b6040805160c081018252600080825260208201819052918101829052606081018290526080810182905260a081019190915250600090815260026020818152604092839020835160c08101855281546001600160a01b03908116825260018301541692810192909252918201549281019290925260038101546060830152600481015460ff16151560808301526005015460a082015290565b6040516101f8919081516001600160a01b03908116825260208084015190911690820152604080830151908201526060808301519082015260808083015115159082015260a0918201519181019190915260c00190565b60405180910390f35b34801561020d57600080fd5b5061022c61021c366004611157565b630a85bd0160e11b949350505050565b6040516001600160e01b031990911681526020016101f8565b34801561025157600080fd5b50610265610260366004611090565b610444565b005b34801561027357600080fd5b50610265610536565b61026561028a366004611090565b6105ca565b34801561029b57600080fd5b506102a560045481565b6040519081526020016101f8565b3480156102bf57600080fd5b506102a560035481565b3480156102d557600080fd5b50610265610992565b3480156102ea57600080fd5b506102f36109a6565b6040516101f89190611206565b34801561030c57600080fd5b506001546040516001600160a01b0390911681526020016101f8565b34801561033457600080fd5b50610265610343366004611090565b610a5f565b34801561035457600080fd5b506102a561036336600461124a565b610abe565b34801561037457600080fd5b5061026561038336600461127f565b610e2c565b34801561039457600080fd5b506103ea6103a3366004611090565b60026020819052600091825260409091208054600182015492820154600383015460048401546005909401546001600160a01b0393841695909316939192909160ff169086565b604080516001600160a01b0397881681529690951660208701529385019290925260608401521515608083015260a082015260c0016101f8565b34801561043057600080fd5b5061026561043f3660046112a1565b610f15565b6000818152600260205260409020600481015460ff1661047f5760405162461bcd60e51b8152600401610476906112be565b60405180910390fd5b80546001600160a01b03163314806104a157506001546001600160a01b031633145b6104fb5760405162461bcd60e51b815260206004820152602560248201527f546964616b206d656d696c696b6920697a696e20756e74756b206d656d62617460448201526430b635b0b760d91b6064820152608401610476565b60048101805460ff1916905560405182907f411aee90354c51b1b04cd563fcab2617142a9d50da19232d888547c8a1b7fd8a90600090a25050565b61053e610f8b565b478061058c5760405162461bcd60e51b815260206004820152601e60248201527f546964616b206164612066656520756e74756b206469776974686472617700006044820152606401610476565b6001546040516001600160a01b039091169082156108fc029083906000818181858888f193505050501580156105c6573d6000803e3d6000fd5b5050565b6105d2610fe5565b6000818152600260205260409020600481015460ff166106045760405162461bcd60e51b8152600401610476906112be565b80600301543410156106515760405162461bcd60e51b8152602060048201526016602482015275050656d6261796172616e20746964616b2063756b75760541b6044820152606401610476565b80546001600160a01b031633036106aa5760405162461bcd60e51b815260206004820152601e60248201527f546964616b2062697361206d656d62656c69204e46542073656e6469726900006044820152606401610476565b600181015481546002830154604051632142170760e11b81526001600160a01b03928316600482015233602482015260448101919091529116906342842e0e90606401600060405180830381600087803b15801561070757600080fd5b505af115801561071b573d6000803e3d6000fd5b50505050600061271060045483600301546107369190611301565b610740919061131e565b6001830154909150600090306001600160a01b0390911603610806576001830154600284015460405163076a175160e41b81526001600160a01b039092169160009183916376a175109161079a9160040190815260200190565b602060405180830381865afa1580156107b7573d6000803e3d6000fd5b505050506040513d601f19601f820116820180604052508101906107db9190611340565b90508015610803576127108186600301546107f69190611301565b610800919061131e565b92505b50505b6000818385600301546108199190611359565b6108239190611359565b84546040519192506001600160a01b03169082156108fc029083906000818181858888f1935050505015801561085d573d6000803e3d6000fd5b5081156109255760018401546002850154604051631e3e403d60e31b81526001600160a01b0390921691600091839163f1f201e8916108a29160040190815260200190565b600060405180830381865afa1580156108bf573d6000803e3d6000fd5b505050506040513d6000823e601f3d908101601f191682016040526108e791908101906113f1565b516040519091506001600160a01b0382169085156108fc029086906000818181858888f19350505050158015610921573d6000803e3d6000fd5b5050505b60048401805460ff191690558354600385015460408051918252602082018590526001600160a01b0390921691339188917f5fafad85dec201c2e73b6a2bef6351129304a624ea8720ecd04cd7f04d83bc39910160405180910390a45050505061098f6001600055565b50565b61099a610f8b565b6109a4600061103e565b565b6060600060035467ffffffffffffffff8111156109c5576109c56110be565b6040519080825280602002602001820160405280156109ee578160200160208202803683370190505b5090506000805b600354811015610a575760008181526002602052604090206004015460ff1615610a455780838381518110610a2c57610a2c611501565b602090810291909101015281610a4181611517565b9250505b80610a4f81611517565b9150506109f5565b509092915050565b610a67610f8b565b6103e8811115610ab95760405162461bcd60e51b815260206004820152601e60248201527f46656520746964616b20626f6c6568206c6562696820646172692031302500006044820152606401610476565b600455565b6000610ac8610fe5565b60008211610b135760405162461bcd60e51b815260206004820152601860248201527704861726761206861727573206c65626968206461726920360441b6044820152606401610476565b6040516331a9108f60e11b81526004810184905233906001600160a01b03861690636352211e90602401602060405180830381865afa158015610b5a573d6000803e3d6000fd5b505050506040513d601f19601f82011682018060405250810190610b7e9190611530565b6001600160a01b031614610bd45760405162461bcd60e51b815260206004820152601a60248201527f416e64612062756b616e2070656d696c696b204e465420696e690000000000006044820152606401610476565b60405163e985e9c560e01b81523360048201523060248201526001600160a01b0385169063e985e9c590604401602060405180830381865afa158015610c1e573d6000803e3d6000fd5b505050506040513d601f19601f82011682018060405250810190610c42919061154d565b80610cbe575060405163020604bf60e21b81526004810184905230906001600160a01b0386169063081812fc90602401602060405180830381865afa158015610c8f573d6000803e3d6000fd5b505050506040513d601f19601f82011682018060405250810190610cb39190611530565b6001600160a01b0316145b610d1c5760405162461bcd60e51b815260206004820152602960248201527f4d61726b6574706c6163652062656c756d206469697a696e6b616e20756e74756044820152686b204e465420696e6960b81b6064820152608401610476565b600380549081906000610d2e83611517565b90915550506040805160c081018252338082526001600160a01b0388811660208085018281528587018b8152606087018b81526001608089018181524260a08b0190815260008d81526002808952908d90209b518c546001600160a01b0319908116918c16919091178d559651938c0180549097169390991692909217909455915195880195909555935160038701555160048601805460ff1916911515919091179055915160059094019390935583518881529081018790529192909184917fb0fe4922ac99799c17a4130d5c045ba2ecdf6e15b75b9ea84aaf0dc28724a42b910160405180910390a49050610e256001600055565b9392505050565b6000828152600260205260409020600481015460ff16610e5e5760405162461bcd60e51b8152600401610476906112be565b80546001600160a01b03163314610ec35760405162461bcd60e51b815260206004820152602360248201527f48616e79612073656c6c65722079616e6720626973612075706461746520686160448201526272676160e81b6064820152608401610476565b60008211610f0e5760405162461bcd60e51b815260206004820152601860248201527704861726761206861727573206c65626968206461726920360441b6044820152606401610476565b6003015550565b610f1d610f8b565b6001600160a01b038116610f825760405162461bcd60e51b815260206004820152602660248201527f4f776e61626c653a206e6577206f776e657220697320746865207a65726f206160448201526564647265737360d01b6064820152608401610476565b61098f8161103e565b6001546001600160a01b031633146109a45760405162461bcd60e51b815260206004820181905260248201527f4f776e61626c653a2063616c6c6572206973206e6f7420746865206f776e65726044820152606401610476565b6002600054036110375760405162461bcd60e51b815260206004820152601f60248201527f5265656e7472616e637947756172643a207265656e7472616e742063616c6c006044820152606401610476565b6002600055565b600180546001600160a01b038381166001600160a01b0319831681179093556040519116919082907f8be0079c531659141344cd1fd0a4f28419497f9722a3daafe3b4186f6b6457e090600090a35050565b6000602082840312156110a257600080fd5b5035919050565b6001600160a01b038116811461098f57600080fd5b634e487b7160e01b600052604160045260246000fd5b604051610100810167ffffffffffffffff811182821017156110f8576110f86110be565b60405290565b604051601f8201601f1916810167ffffffffffffffff81118282101715611127576111276110be565b604052919050565b600067ffffffffffffffff821115611149576111496110be565b50601f01601f191660200190565b6000806000806080858703121561116d57600080fd5b8435611178816110a9565b93506020850135611188816110a9565b925060408501359150606085013567ffffffffffffffff8111156111ab57600080fd5b8501601f810187136111bc57600080fd5b80356111cf6111ca8261112f565b6110fe565b8181528860208385010111156111e457600080fd5b8160208401602083013760006020838301015280935050505092959194509250565b6020808252825182820181905260009190848201906040850190845b8181101561123e57835183529284019291840191600101611222565b50909695505050505050565b60008060006060848603121561125f57600080fd5b833561126a816110a9565b95602085013595506040909401359392505050565b6000806040838503121561129257600080fd5b50508035926020909101359150565b6000602082840312156112b357600080fd5b8135610e25816110a9565b6020808252601390820152722634b9ba34b733903a34b230b59030b5ba34b360691b604082015260600190565b634e487b7160e01b600052601160045260246000fd5b8082028115828204841417611318576113186112eb565b92915050565b60008261133b57634e487b7160e01b600052601260045260246000fd5b500490565b60006020828403121561135257600080fd5b5051919050565b81810381811115611318576113186112eb565b8051611377816110a9565b919050565b600082601f83011261138d57600080fd5b815161139b6111ca8261112f565b818152602085818487010111156113b157600080fd5b60005b838110156113cf5785810182015183820183015281016113b4565b50600092820101919091529392505050565b8051801515811461137757600080fd5b60006020828403121561140357600080fd5b815167ffffffffffffffff8082111561141b57600080fd5b90830190610100828603121561143057600080fd5b6114386110d4565b6114418361136c565b815260208301518281111561145557600080fd5b6114618782860161137c565b60208301525060408301518281111561147957600080fd5b6114858782860161137c565b60408301525060608301518281111561149d57600080fd5b6114a98782860161137c565b606083015250608083015160808201526114c560a084016113e1565b60a082015260c083015160c082015260e0830151828111156114e657600080fd5b6114f28782860161137c565b60e08301525095945050505050565b634e487b7160e01b600052603260045260246000fd5b600060018201611529576115296112eb565b5060010190565b60006020828403121561154257600080fd5b8151610e25816110a9565b60006020828403121561155f57600080fd5b610e25826113e156fea26469706673582212206c78491621d8a8b4b0aca8e058560aacce9f0e568f07035f1263f61f2ccf276064736f6c63430008130033",
  "linkReferences": {},
  "deployedLinkReferences": {}
}